:10000000BEEF04F0FFFFFFFF00C016F001C015F0C7
:10001000F2A208D0355205E14C52010ED8A4000ED0
:100020004C6EF292F0A01FD035521CE1366A376A4E
:100030004C50000A0BE13C0E386E000E396E3C0E3F
:10004000D76EB00ED66ED58EF28A0AD00A0E386EF2
:10005000000E396E0B0ECF6EDC0ECE6ECD809D8005
:10006000010E356EF090F2A424D03C0ED76EB00E87
:10007000D66E3650010F006E00C036F00A0E365CA8
:1000800017E3366A000E006E3950005C02E138500A
:1000900000080BE2010E385C006E000E3958016E4C
:1000A00000C038F001C039F003D0D59EF29A356A0D
:1000B000F2949EA024D00B0ECF6EDC0ECE6E375085
:1000C000010F006E00C037F0040E375C17E3376A8B
:1000D000000E006E3950005C02E1385000080BE25F
:1000E000010E385C006E000E3958016E00C038F009
:1000F00001C039F003D0CD909D90356A9E9016C016
:1001000000F015C001F01100210E0D6E0D2EFED76E
:1001100012000F0E0C6E470E0D6E0D2EFED70C2E1C
:10012000FCD70000000012000000000012000001D7
:1001300093BF02D0819E01D0818E93BD02D0819C5D
:1001400001D0818C93BB02D0819A01D0818A93B96E
:1001500002D0819801D0818871B102D0818401D010
:1001600081948186E1DF819693B702D0819E01D090
:10017000818E93B502D0819C01D0818C93B302D043
:10018000819A01D0818A93B102D0819801D081886F
:1001900071B102D0818401D081948186C5DF8196BE
:1001A00071A102D0B6DF01D0AFDF12000001719162
:1001B00092C093F0BCDF718112002A0E0001726FB1
:1001C000090E736F760E746F000E756FC26A701D24
:1001D000006E0050C116070EC012C08EC280120001
:1001E0000B6A0A6A096A086A0E6A03340836045000
:1001F000085E0550D8A0053C095E0650D8A0063C14
:100200000A5E0750D8A0073C0B5EE86AD8A0010E32
:100210000E5E0336070E0C6E0334083609360A36B6
:100220000B360E36045003A012D0085E0550D8A03D
:10023000053C095E0650D8A0063C0A5E0750D8A0CF
:10024000073C0B5EE86AD8A0010E0E5E11D00826AE
:100250000550D8B0053C09260650D8B0063C0A2601
:100260000750D8B0073C0B26E86AD8B0010E0E261E
:1002700003360C2ED1D70234083609360A360B362F
:100280000E36045003A012D0085E0550D8A0053CDD
:10029000095E0650D8A0063C0A5E0750D8A0073C6D
:1002A0000B5EE86AD8A0010E0E5E11D0082605503C
:1002B000D8B0053C09260650D8B0063C0A2607509F
:1002C000D8B0073C0B26E86AD8B0010E0E260236DD
:1002D000070E0C6E0234083609360A360B360E3617
:1002E000045002A012D0085E0550D8A0053C095E5B
:1002F0000650D8A0063C0A5E0750D8A0073C0B5E0B
:10030000E86AD8A0010E0E5E11D008260550D8B0BC
:10031000053C09260650D8B0063C0A260750D8B03E
:10032000073C0B26E86AD8B0010E0E2602360C2ECA
:10033000D1D70134083609360A360B360E3604504A
:1003400002A012D0085E0550D8A0053C095E0650F8
:10035000D8A0063C0A5E0750D8A0073C0B5EE86AAE
:10036000D8A0010E0E5E11D008260550D8B0053C6D
:1003700009260650D8B0063C0A260750D8B0073CDC
:100380000B26E86AD8B0010E0E260136070E0C6E59
:100390000134083609360A360B360E36045001A0F1
:1003A00012D0085E0550D8A0053C095E0650D8A0C2
:1003B000063C0A5E0750D8A0073C0B5EE86AD8A04E
:1003C000010E0E5E11D008260550D8B0053C092656
:1003D0000650D8B0063C0A260750D8B0073C0B267A
:1003E000E86AD8B0010E0E2601360C2ED1D70034A3
:1003F000083609360A360B360E36045001A012D0E4
:10040000085E0550D8A0053C095E0650D8A0063C01
:100410000A5E0750D8A0073C0B5EE86AD8A0010E20
:100420000E5E11D008260550D8B0053C09260650AE
:10043000D8B0063C0A260750D8B0073C0B26E86A1D
:10044000D8B0010E0E260036070E0C6E00340836AA
:1004500009360A360B360E36045000A012D0085E5C
:100460000550D8A0053C095E0650D8A0063C0A5E9F
:100470000750D8A0073C0B5EE86AD8A0010E0E5EBC
:1004800011D008260550D8B0053C09260650D8B032
:10049000063C0A260750D8B0073C0B26E86AD8B0BD
:1004A000010E0E2600360C2ED1D700B00ED004500F
:1004B00008260550D8B0053C09260650D8B0063CA1
:1004C0000A260750D8B0073C0B261200220E0C6EED
:1004D000086A096A0A6A0B6A0C06D8B41FD0D89059
:1004E0000B320A3209320832033202320132003250
:1004F000D8A0F2D70C06D8B409D00450082605506D
:10050000092206500A2207500B22EAD70450082677
:100510000550092206500A2207500B221200086AD1
:10052000096A100E0C6E0134083609360450085E54
:100530000550D8A0053C095ED8B007D00450082665
:100540000550D8B0053C0926D890003601360C2E4F
:10055000EAD7120010D0800E00018D6F1AD0C00EA5
:100560008D6F17D0940E8D6F14D0D40E8D6F11D067
:10057000800E8D6F0ED000018D51010AECE08D517F
:10058000020AEDE08D51030AEDE08D51040AEDE021
:10059000EFD78E05006E8D51002600C08DF0718161
:1005A00000C093F0C4DD71918FC093F0C0DD718104
:1005B000120010D0800E00018D6F1AD0C00E8D6F0A
:1005C00017D0940E8D6F14D0D40E8D6F11D0800E75
:1005D0008D6F0ED000018D51010AECE08D51020AA1
:1005E000EDE08D51030AEDE08D51040AEDE0EFD707
:1005F0008E05006E8D51002600C08DF000C093F076
:1006000096DD7191916B91518F25E96E000E9021CD
:10061000EA6EEE520BE091518F25E96E000E9021AB
:10062000EA6EEECF92F0C2DD912BEDD77181120010
:100630000E0E0D6E0D2EFED70000120093969394B1
:100640009398939A939C939E81968194819E819C8A
:10065000819A81985EDD5DDD5CDD818A818881869D
:1006600063DD819656DD81865FDD819652DD818670
:100670005BDD81964EDD8198818656DD819649DD70
:10068000818652DD8196819A818E81864DDD8196AB
:1006900040DD819E8188818647DD819681988186B3
:1006A00043DD819636DD81863FDD819681888186B6
:1006B0003BDD81962EDD8198818636DD8196818EA7
:1006C000818C818A818881862FDD819622DD0001DF
:1006D00071811200F18CF18AF292F090F288F0862A
:1006E00012000D0E926E69DD3B0EC16E1200090004
:1006F000F5CFE6FF0006FBE10106F9E1120076C046
:1007000000F077C001F0000E026E036EE80E046E7A
:10071000030E056E000E066E076ED8DEFF0E046E29
:10072000030E056E000E066E076E5ADD00C078F0EF
:1007300001C079F002C07AF003C07BF0000E035CC8
:1007400008E1000E025C05E1030E015C02E1E80E27
:10075000005C1BE3010E00018D6F010E8E6F170E02
:100760008F6F000E906F25DF010E8D6F0D0E8E6F57
:10077000DF0E8F6FEFDE010E8D6F0E0E8E6F240E6B
:100780008F6F000E906F15DF8AD00001640E046E2B
:10079000000E056E066E076E78C000F079C001F09D
:1007A0007AC002F07BC003F01BDD0A0E046E000E5F
:1007B000056E066E076E14DD08C000F009C001F07A
:1007C0000AC002F00BC003F000C089F001C08AF03B
:1007D00002C08BF003C08CF00A0E046E000E056E92
:1007E000066E076E78C000F079C001F07AC002F0A2
:1007F0007BC003F0F5DC0A0E046E000E056E066E7B
:10080000076EEEDC08C000F009C001F00AC002F07B
:100810000BC003F000C085F001C086F002C087F075
:1008200003C088F00A0E046E000E056E066E076E99
:1008300078C000F079C001F07AC002F07BC003F00C
:10084000CFDC08C000F009C001F00AC002F00BC004
:1008500003F0300E8925046E04C07CF0300E85252F
:100860007D6F2E0E7E6F300E00247F6F200E806F06
:10087000DF0E816F430E826F836B010E8D6F010E51
:100880008E6F260E8F6F000E906F93DE010E8D6FB0
:10089000070E8E6F7C0E8F6F000E906F8ADE7B517D
:1008A000000808E17A51000805E17951010802E1E8
:1008B0007851F40802E28C8001D08C9012000A0E6C
:1008C000046E000E056E76C000F077C001F027DEE2
:1008D000300E002600C078F00A0E046E000E056E81
:1008E00076C000F077C001F01ADE08C000F009C041
:1008F00001F0300E00240001796F200E7A6F730E24
:100900007B6F7C6B020E8D6F010E8E6F2D0E8F6FC5
:10091000000E906F4EDE020E8D6F080E8E6F780EF9
:100920008F6F000E906F45DE1200830EC21676C0E8
:1009300000F000360090003600900050C21278DEC1
:10094000C282C2A201D0FDD7C4CF01F0006AC35059
:100950000012000E01121200010ED56E3C0ED76E71
:10096000B00ED66EF294F29A1200300ECD6E0B0ECF
:10097000CF6EDC0ECE6E9E909D9012003DEC05F089
:10098000956A8C6A030E936EACDE58DE010E936F8F
:1009900097EC00F00C0E936F97EC00F09BDEDCDF21
:1009A000E4DFF28CF28E355219E0766BBEDF00C0C8
:1009B00076F001C077F0A3DE38C076F039C077F06A
:1009C0007EDF030E0B6E080E0C6E770E0D6E0D2E75
:1009D000FED70C2EFCD70B2EFAD720D08C90010E10
:1009E0008D6F010E8E6F4D0E8F6F000E906FE1DDDB
:1009F0004C50000A0AE1020E8D6F010E8E6F3A0E06
:100A00008F6F000E906FD5DD09D0020E8D6F010E35
:100A10008E6F5E0E8F6F000E906FCBDDC4D7FFD749
:100A200054656D703A203130302E30200043005430
:100A3000656D703A200054656D706F3A20000000BB
:100A40000000004C6F6E676F3A20363073202852DA
:100A50004231292000004D6F646F2053656C65633F
:100A6000696F6E61646F00437572746F3A20313044
:100A70007320285242312920003010EE17F05A0E10
:100A8000006E010E016E200EF66E0A0EF76E000E5D
:100A9000F86E77EC03F01200FFFFFFFFFFFFFFFF90
:020000040030CA
:0E000000000C1F1EFF8381FF0FC00FE00F409A
:00000001FF
